:100000000EC020C01FC01EC01DC01CC01BC01AC017
:1000100019C018C017C016C015C014C013C01124D1
:100020001FBECFE5D2E0DEBFCDBF10E0A0E6B0E05E
:10003000E0E4F3E002C005900D92AA36B107D9F7CB
:100040006ED17CC1DDCFEF92FF920F931F93CF93C0
:10005000DF937C0118161906C4F500E010E0CAE62B
:10006000D0E061E070E0E0E6F0E0DF0188B39C9171
:1000700012969B0102C0220F331F9A95E2F7282B9C
:1000800028BB8FE493EC0197F1F700C00000CA177A
:10009000DB0761F728B380813296AB0102C0440FC1
:1000A000551F8A95E2F7942F9095922398BB8FE481
:1000B00093EC0197F1F700C00000EC17FD0751F732
:1000C0000F5F1F4FE016F10671F6DF91CF911F9180
:1000D0000F91FF90EF900895EF92FF920F931F936F
:1000E000CF93DF937C0118161906DCF500E010E0D1
:1000F000C4E7D0E061E070E0E0E6F0E0DF0188B363
:100100009C9112969B0102C0220F331F9A95E2F731
:10011000282B28BBCA17DB0791F71CC028B38081A6
:100120003296AB0102C0440F551F8A95E2F7942F17
:100130009095922398BBEC17FD0781F78FE493EC21
:100140000197F1F700C000000F5F1F4FE016F106A6
:1001500099F607C08FE493EC0197F1F700C0000017
:10016000DDCFDF91CF911F910F91FF90EF90089518
:10017000CF92DF92EF92FF920F931F93CF93DF9373
:100180006C01181619060CF078C0E12CF12CC4E7AC
:10019000D0E061E070E000E610E0E0E6F0E0DF01D2
:1001A00028B3CB010C9002C0880F991F0A94E2F784
:1001B000822B88BB1496CA17DB0791F711C028B3AE
:1001C000AB01008002C0440F551F0A94E2F7942F40
:1001D0009095922398BB3496EC17FD0781F707C0E2
:1001E0008FE493EC0197F1F700C00000E8CFEFE453
:1001F000F3EC3197F1F700C0000028B3CB01F80110
:10020000028002C0880F991F0A94E2F7822B88BBF4
:1002100028B3CB01068002C0880F991F0A94E2F729
:10022000822B88BB8FE493EC0197F1F700C00000AC
:1002300098B39B01028002C0220F331F0A94E2F799
:10024000822F8095892388BB98B39B01068002C0CA
:10025000220F331F0A94E2F7822F8095892388BBEF
:100260008FE493EC0197F1F700C000009FEFE91ACB
:10027000F90ACE14DF0409F090CFDF91CF911F91DE
:100280000F91FF90EF90DF90CF900895EF92FF9243
:100290000F931F93CF93DF937C0118161906C4F5B3
:1002A00000E010E0C0E6D0E061E070E0EAE6F0E0F7
:1002B000DF0188B312979B010C9002C0220F331FFD
:1002C0000A94E2F7282B28BB8FE493EC0197F1F70F
:1002D00000C00000CA17DB0761F728B33297AB01F3
:1002E000008002C0440F551F0A94E2F7942F9095A6
:1002F000922398BB8FE493EC0197F1F700C00000C4
:10030000EC17FD0751F70F5F1F4FE016F10671F66E
:10031000DF91CF911F910F91FF90EF9008958FE79C
:1003200087BB82E090E08FDE83E090E0D5DE82E064
:1003300090E0ACDF82E090E01BDFF3CFF894FFCFDA
:0A03400000000100020003000400A9
:00000001FF
