:100000000EC020C01FC01EC01DC01CC01BC01AC017
:1000100019C018C017C016C015C014C013C01124D1
:100020001FBECFE5D2E0DEBFCDBF10E0A0E6B0E05E
:10003000E0E8F3E002C005900D92AA36B107D9F7C7
:100040008ED19CC1DDCFEF92FF920F931F93CF9380
:10005000DF937C0118161906F4F500E010E0CAE6FB
:10006000D0E061E070E0E0E6F0E0DF0188B39C9171
:1000700012969B0102C0220F331F9A95E2F7282B9C
:1000800028BB2FEB84ED91E0215080409040E1F7B8
:1000900000C00000CA17DB0749F728B380813296F9
:1000A000AB0102C0440F551F8A95E2F7942F90953B
:1000B000922398BB2FEB84ED91E02150804090403B
:1000C000E1F700C00000EC17FD0739F70F5F1F4F85
:1000D000E016F10641F6DF91CF911F910F91FF904D
:1000E000EF900895EF92FF920F931F93CF93DF93BA
:1000F0007C01181619060CF041C000E010E0C4E7BE
:10010000D0E061E070E0E0E6F0E0DF0188B39C91D0
:1001100012969B0102C0220F331F9A95E2F7282BFB
:1001200028BBCA17DB0791F71FC028B3808132961E
:10013000AB0102C0440F551F8A95E2F7942F9095AA
:10014000922398BBEC17FD0781F72FE38DE093E036
:10015000215080409040E1F700C000000F5F1F4F2A
:10016000E016F10681F60AC02FE38DE093E02150FE
:1001700080409040E1F700C00000D7CFDF91CF91E1
:100180001F910F91FF90EF900895CF92DF92EF9221
:10019000FF920F931F93CF93DF936C0118161906EC
:1001A0000CF085C0E12CF12CC4E7D0E061E070E0F8
:1001B00000E610E0E0E6F0E0DF0128B3CB010C90B0
:1001C00002C0880F991F0A94E2F7822B88BB14960D
:1001D000CA17DB0791F711C028B3AB01008002C03A
:1001E000440F551F0A94E2F7942F9095922398BBE1
:1001F0003496EC17FD0781F70AC02FE38DE093E0FA
:10020000215080409040E1F700C00000E5CFEFE3CF
:10021000FDE023E0E150F0402040E1F700C00000A5
:1002200028B3CB01F801028002C0880F991F0A94FD
:10023000E2F7822B88BB28B3CB01068002C0880F6F
:10024000991F0A94E2F7822B88BBFFE32DE083E03D
:10025000F15020408040E1F700C0000098B39B01BE
:10026000F801028002C0220F331F0A94E2F7822FA6
:100270008095892388BB98B39B01068002C0220F1A
:10028000331F0A94E2F7822F8095892388BBFFE30E
:100290002DE083E0F15020408040E1F700C00000F5
:1002A0009FEFE91AF90ACE14DF0409F083CFDF913A
:1002B000CF911F910F91FF90EF90DF90CF90089515
:1002C000EF92FF920F931F93CF93DF937C01181649
:1002D0001906F4F500E010E0C0E6D0E061E070E05F
:1002E000EAE6F0E0DF0188B312979B010C9002C0B0
:1002F000220F331F0A94E2F7282B28BB2FEB84ED43
:1003000091E0215080409040E1F700C00000CA1702
:10031000DB0749F728B33297AB01008002C0440FD6
:10032000551F0A94E2F7942F9095922398BB2FEBD8
:1003300084ED91E0215080409040E1F700C0000042
:10034000EC17FD0739F70F5F1F4FE016F10641F676
:10035000DF91CF911F910F91FF90EF9008958FE75C
:1003600087BB82E090E06FDE83E090E0BBDE82E05E
:1003700090E0A6DF82E090E008DFF3CFF894FFCFB3
:0A0380000000010002000300040069
:00000001FF
