:100000000EC020C01FC01EC01DC01CC01BC01AC017
:1000100019C018C017C016C015C014C013C01124D1
:100020001FBECFE5D2E0DEBFCDBF11E0A0E6B0E05D
:10003000E6E4F8E002C005900D92AE38B107D9F7BA
:10004000F9D3FFC3DDCF803191051CF0C09A4097F2
:1000500001C0C098883091051CF0C19A089701C072
:10006000C198843091051CF0C29A049701C0C298CF
:10007000823091051CF0C39A029701C0C3981816EC
:10008000190614F4C49A0895C4980895EF92FF9243
:100090000F931F93CF93DF93C82F813609F033C39B
:1000A00008E711E00F2EF2E8EF2EF1E0FF2EF02D21
:1000B000F801819191918F01C6DF89EF90E001975E
:1000C000F1F700C00000E016F10691F780E090E043
:1000D000BADF4BC0F801819191918F01B4DF89EFB4
:1000E00090E00197F1F700C00000E016F10691F7EB
:1000F00080E090E0A8DF8DC0C33609F010C304E6AD
:1001000011E00F2EFEE6EF2EF1E0FF2EF02DF801AC
:10011000819191918F0197DF89EF90E00197F1F73D
:1001200000C00000E016F10691F780E090E08BDF60
:1001300053C00AE511E00F2EF4E6EF2EF1E0FF2E9A
:10014000F02DF801819191918F017DDF89EF90E091
:100150000197F1F700C000000E151F0591F780E030
:1001600090E071DFC636F1F0E2C2C53609F0DBC2BD
:1001700000E511E00F2EFAE5EF2EF1E0FF2EF02D55
:10018000F801819191918F015EDF89EF90E00197F5
:10019000F1F700C00000E016F10691F780E090E072
:1001A00052DF1AC006E411E00F2EF0E5EF2EF1E069
:1001B000FF2EF02DF801819191918F0144DF89EF9D
:1001C00090E00197F1F700C00000E016F10691F70A
:1001D00080E090E038DF1DC0C73609F0ACC20CE308
:1001E00011E00F2EF6E4EF2EF1E0FF2EF02DF801D6
:1001F000819191918F0127DF89EF90E00197F1F7CD
:1002000000C000000E151F0591F780E090E01BDF95
:100210001DC0C83609F093C202E311E00F2EFCE3C3
:10022000EF2EF1E0FF2EF02DF801819191918F01D9
:100230000ADF89EF90E00197F1F700C00000E016B7
:10024000F10691F780E090E0FEDE1DC0C93609F0AE
:100250007AC208E211E00F2EF2E3EF2EF1E0FF2E5A
:10026000F02DF801819191918F01EDDE89EF90E001
:100270000197F1F700C00000E016F10691F780E069
:1002800090E0E1DE1DC0CA3609F061C20EE111E066
:100290000F2EF8E2EF2EF1E0FF2EF02DF801819104
:1002A00091918F01D0DE89EF90E00197F1F700C0C6
:1002B0000000E016F10691F780E090E0C4DE1DC07A
:1002C000CB3609F048C204E111E00F2EFEE1EF2E1B
:1002D000F1E0FF2EF02DF801819191918F01B3DEB5
:1002E00089EF90E00197F1F700C00000E016F106F9
:1002F00091F780E090E0A7DE1DC0CC3609F02FC258
:100300000AE011E00F2EF4E1EF2EF1E0FF2EF02DC8
:10031000F801819191918F0196DE89EF90E001972C
:10032000F1F700C00000E016F10691F780E090E0E0
:100330008ADE1DC0CD3609F016C200E011E00F2E96
:10034000FAE0EF2EF1E0FF2EF02DF801819191916E
:100350008F0179DE89EF90E00197F1F700C000008E
:10036000E016F10691F780E090E06DDE1DC0CE361C
:1003700009F0FDC106EF10E00F2EF0E0EF2EF1E0E6
:10038000FF2EF02DF801819191918F015CDE89EFB4
:1003900090E00197F1F700C00000E016F10691F738
:1003A00080E090E050DE1DC0CF3609F0E4C10CEED5
:1003B00010E00F2EF6EFEF2EF0E0FF2EF02DF801FB
:1003C000819191918F013FDE89EF90E00197F1F7E4
:1003D00000C00000E016F10691F780E090E033DE07
:1003E0001DC0C03709F0CBC102EE10E00F2EFCEEAD
:1003F000EF2EF0E0FF2EF02DF801819191918F0109
:1004000022DE89EF90E00197F1F700C00000E016CE
:10041000F10691F780E090E016DE1DC0C13709F0CB
:10042000B2C108ED10E00F2EF2EEEF2EF0E0FF2E3D
:10043000F02DF801819191918F0105DE89EF90E017
:100440000197F1F700C000000E151F0591F780E03D
:1004500090E0F9DD1DC0C23709F099C10EEC10E043
:100460000F2EF8EDEF2EF0E0FF2EF02DF801819128
:1004700091918F01E8DD89EF90E00197F1F700C0DD
:100480000000E016F10691F780E090E0DCDD1DC091
:10049000C33709F080C104EC10E00F2EFEECEF2E04
:1004A000F0E0FF2EF02DF801819191918F01CBDDCD
:1004B00089EF90E00197F1F700C00000E016F10627
:1004C00091F780E090E0BFDD1DC0C43709F067C13F
:1004D0000AEB10E00F2EF4ECEF2EF0E0FF2EF02DE3
:1004E000F801819191918F01AEDD89EF90E0019744
:1004F000F1F700C00000E016F10691F780E090E00F
:10050000A2DD1DC0C53709F04EC100EB10E00F2E73
:10051000FAEBEF2EF0E0FF2EF02DF8018191919192
:100520008F0191DD89EF90E00197F1F700C00000A5
:10053000E016F10691F780E090E085DD1DC0C6373A
:1005400009F035C106EA10E00F2EF0EBEF2EF0E0D7
:10055000FF2EF02DF801819191918F0174DD89EFCB
:1005600090E00197F1F700C00000E016F10691F766
:1005700080E090E068DD1DC0C73709F01CC10CE9C0
:1005800010E00F2EF6EAEF2EF0E0FF2EF02DF8012E
:10059000819191918F0157DD89EF90E00197F1F7FB
:1005A00000C000000E151F0591F780E090E04BDDC4
:1005B0001DC0C83709F003C102E910E00F2EFCE9A5
:1005C000EF2EF0E0FF2EF02DF801819191918F0137
:1005D0003ADD89EF90E00197F1F700C00000E016E6
:1005E000F10691F780E090E02EDD1DC0C93709F0DB
:1005F000EAC008E810E00F2EF2E9EF2EF0E0FF2E3F
:10060000F02DF801819191918F011DDD89EF90E02E
:100610000197F1F700C00000E016F10691F780E0C5
:1006200090E011DD1DC0CA3709F0D1C00EE710E01F
:100630000F2EF8E8EF2EF0E0FF2EF02DF80181915B
:1006400091918F0100DD89EF90E00197F1F700C0F3
:100650000000E016F10691F780E090E0F4DC1DC0A8
:10066000C13209F0B8C00AE610E00F2EF4E7EF2E11
:10067000F0E0FF2EF02DF801819191918F01E3DCE4
:1006800089EF90E00197F1F700C00000E016F10655
:1006900091F780E090E0D7DC17C0CF3309F09FC01E
:1006A000C0E6D0E00AE610E089919991CCDCE9EF50
:1006B000F0E03197F1F700C000000C171D07A1F71B
:1006C00080E090E0C0DC15C0CE3299F4C4E7D0E001
:1006D0000EE710E089919991B6DC89EF90E00197DF
:1006E000F1F700C000000C171D07A1F780E090E0B3
:1006F000AADC9FE9E8E6F6E09150E040F040E1F73F
:1007000000C0000070C0823609F0F6CC0EE611E0A1
:100710000F2EF8E7EF2EF1E0FF2EF02DDBCCC436E4
:1007200009F407CD22CDC63609F43CCD55CDC736E8
:1007300009F455CD6ECDC83609F088CD6DCDC936DA
:1007400009F0A1CD86CDCA3609F0BACD9FCDCB3602
:1007500009F0D3CDB8CDCC3609F0ECCDD1CDCD3626
:1007600009F005CEEACDCE3609F01ECE03CECF3647
:1007700009F037CE1CCEC03709F050CE35CEC13788
:1007800009F069CE4ECEC23709F082CE67CEC337AC
:1007900009F09BCE80CEC43709F0B4CE99CEC537D0
:1007A00009F0CDCEB2CEC63709F0E6CECBCEC737F4
:1007B00009F0FFCEE4CEC83709F018CFFDCEC93717
:1007C00009F031CF16CFCA3709F04ACF2FCFC13247
:1007D00009F063CF48CFCF3309F076CF61CFCE3267
:1007E00009F474CF86CFDF91CF911F910F91FF90C5
:1007F000EF900895EF92FF920F931F93CF93DF93A3
:100800008C017C01C0E0D0E0F70181917F013EDCEA
:100810002196F80101900020E9F73197E01BF10BD8
:10082000EC17FD0788F7DF91CF911F910F91FF9093
:10083000EF90089587B38F6187BB82E891E0DADF9C
:06084000FFCFF894FFCF8A
:100846000800130014000800000000001D0000004E
:10085600000000000000010000000000000013007E
:10086600150015001900000011000A000400080018
:10087600100011000A0004000A0011001C00030009
:100886000C0003001C0018000600010006001800FA
:100896001E00010001001E000000100010001F00D5
:1008A60010001000080015001500020000001F00CF
:1008B60014001600090000000E00110013000E00BF
:1008C60002001F0014001400080000000E001100B2
:1008D60011000E0000001F000C0003001F000000A6
:1008E6001F000C0003000C001F001F000100010088
:1008F600010000001F0004000A00110000000000B3
:1009060011001E0010000000000011001F00110061
:1009160000001F000400040004001F000E00110068
:1009260013000A0000001F0014001400100000004D
:100936001F0015001500110000001F001100110016
:100946000E0000000E00110011000A0000001F003A
:10095600150015000A000000010006001A00060036
:0E09660001004B6F6C6F6D696E204D61780063
:00000001FF
